{
  "_format": "hh-sol-artifact-1",
  "contractName": "FaucetToken",
  "sourceName": "contracts/FaucetToken.sol",
  "abi": [
    {
      "inputs": [
        {
          "internalType": "uint256",
          "name": "cap",
          "type": "uint256"
        },
        {
          "internalType": "uint256",
          "name": "reward",
          "type": "uint256"
        }
      ],
      "stateMutability": "nonpayable",
      "type": "constructor"
    },
    {
      "anonymous": false,
      "inputs": [
        {
          "indexed": true,
          "internalType": "address",
          "name": "owner",
          "type": "address"
        },
        {
          "indexed": true,
          "internalType": "address",
          "name": "spender",
          "type": "address"
        },
        {
          "indexed": false,
          "internalType": "uint256",
          "name": "value",
          "type": "uint256"
        }
      ],
      "name": "Approval",
      "type": "event"
    },
    {
      "anonymous": false,
      "inputs": [
        {
          "indexed": true,
          "internalType": "address",
          "name": "from",
          "type": "address"
        },
        {
          "indexed": true,
          "internalType": "address",
          "name": "to",
          "type": "address"
        },
        {
          "indexed": false,
          "internalType": "uint256",
          "name": "value",
          "type": "uint256"
        }
      ],
      "name": "Transfer",
      "type": "event"
    },
    {
      "inputs": [
        {
          "internalType": "address",
          "name": "owner",
          "type": "address"
        },
        {
          "internalType": "address",
          "name": "spender",
          "type": "address"
        }
      ],
      "name": "allowance",
      "outputs": [
        {
          "internalType": "uint256",
          "name": "",
          "type": "uint256"
        }
      ],
      "stateMutability": "view",
      "type": "function"
    },
    {
      "inputs": [
        {
          "internalType": "address",
          "name": "spender",
          "type": "address"
        },
        {
          "internalType": "uint256",
          "name": "amount",
          "type": "uint256"
        }
      ],
      "name": "approve",
      "outputs": [
        {
          "internalType": "bool",
          "name": "",
          "type": "bool"
        }
      ],
      "stateMutability": "nonpayable",
      "type": "function"
    },
    {
      "inputs": [
        {
          "internalType": "address",
          "name": "account",
          "type": "address"
        }
      ],
      "name": "balanceOf",
      "outputs": [
        {
          "internalType": "uint256",
          "name": "",
          "type": "uint256"
        }
      ],
      "stateMutability": "view",
      "type": "function"
    },
    {
      "inputs": [],
      "name": "blockReward",
      "outputs": [
        {
          "internalType": "uint256",
          "name": "",
          "type": "uint256"
        }
      ],
      "stateMutability": "view",
      "type": "function"
    },
    {
      "inputs": [
        {
          "internalType": "uint256",
          "name": "amount",
          "type": "uint256"
        }
      ],
      "name": "burn",
      "outputs": [],
      "stateMutability": "nonpayable",
      "type": "function"
    },
    {
      "inputs": [
        {
          "internalType": "address",
          "name": "account",
          "type": "address"
        },
        {
          "internalType": "uint256",
          "name": "amount",
          "type": "uint256"
        }
      ],
      "name": "burnFrom",
      "outputs": [],
      "stateMutability": "nonpayable",
      "type": "function"
    },
    {
      "inputs": [],
      "name": "cap",
      "outputs": [
        {
          "internalType": "uint256",
          "name": "",
          "type": "uint256"
        }
      ],
      "stateMutability": "view",
      "type": "function"
    },
    {
      "inputs": [],
      "name": "decimals",
      "outputs": [
        {
          "internalType": "uint8",
          "name": "",
          "type": "uint8"
        }
      ],
      "stateMutability": "view",
      "type": "function"
    },
    {
      "inputs": [
        {
          "internalType": "address",
          "name": "spender",
          "type": "address"
        },
        {
          "internalType": "uint256",
          "name": "subtractedValue",
          "type": "uint256"
        }
      ],
      "name": "decreaseAllowance",
      "outputs": [
        {
          "internalType": "bool",
          "name": "",
          "type": "bool"
        }
      ],
      "stateMutability": "nonpayable",
      "type": "function"
    },
    {
      "inputs": [],
      "name": "destroy",
      "outputs": [],
      "stateMutability": "nonpayable",
      "type": "function"
    },
    {
      "inputs": [
        {
          "internalType": "address",
          "name": "spender",
          "type": "address"
        },
        {
          "internalType": "uint256",
          "name": "addedValue",
          "type": "uint256"
        }
      ],
      "name": "increaseAllowance",
      "outputs": [
        {
          "internalType": "bool",
          "name": "",
          "type": "bool"
        }
      ],
      "stateMutability": "nonpayable",
      "type": "function"
    },
    {
      "inputs": [],
      "name": "name",
      "outputs": [
        {
          "internalType": "string",
          "name": "",
          "type": "string"
        }
      ],
      "stateMutability": "view",
      "type": "function"
    },
    {
      "inputs": [],
      "name": "owner",
      "outputs": [
        {
          "internalType": "address payable",
          "name": "",
          "type": "address"
        }
      ],
      "stateMutability": "view",
      "type": "function"
    },
    {
      "inputs": [
        {
          "internalType": "uint256",
          "name": "reward",
          "type": "uint256"
        }
      ],
      "name": "setBlockReward",
      "outputs": [],
      "stateMutability": "nonpayable",
      "type": "function"
    },
    {
      "inputs": [],
      "name": "symbol",
      "outputs": [
        {
          "internalType": "string",
          "name": "",
          "type": "string"
        }
      ],
      "stateMutability": "view",
      "type": "function"
    },
    {
      "inputs": [],
      "name": "totalSupply",
      "outputs": [
        {
          "internalType": "uint256",
          "name": "",
          "type": "uint256"
        }
      ],
      "stateMutability": "view",
      "type": "function"
    },
    {
      "inputs": [
        {
          "internalType": "address",
          "name": "to",
          "type": "address"
        },
        {
          "internalType": "uint256",
          "name": "amount",
          "type": "uint256"
        }
      ],
      "name": "transfer",
      "outputs": [
        {
          "internalType": "bool",
          "name": "",
          "type": "bool"
        }
      ],
      "stateMutability": "nonpayable",
      "type": "function"
    },
    {
      "inputs": [
        {
          "internalType": "address",
          "name": "from",
          "type": "address"
        },
        {
          "internalType": "address",
          "name": "to",
          "type": "address"
        },
        {
          "internalType": "uint256",
          "name": "amount",
          "type": "uint256"
        }
      ],
      "name": "transferFrom",
      "outputs": [
        {
          "internalType": "bool",
          "name": "",
          "type": "bool"
        }
      ],
      "stateMutability": "nonpayable",
      "type": "function"
    }
  ],
  "bytecode": "0x60a06040523480156200001157600080fd5b5060405162002a4738038062002a47833981810160405281019062000037919062000514565b620000476200021e60201b60201c565b600a620000559190620006eb565b826200006291906200073c565b6040518060400160405280600b81526020017f466175636574546f6b656e0000000000000000000000000000000000000000008152506040518060400160405280600381526020017f46435400000000000000000000000000000000000000000000000000000000008152508160039081620000df9190620009f7565b508060049081620000f19190620009f7565b505050600081116200013a576040517f08c379a0000000000000000000000000000000000000000000000000000000008152600401620001319062000b3f565b60405180910390fd5b80608081815250505033600560006101000a81548173ffffffffffffffffffffffffffffffffffffffff021916908373ffffffffffffffffffffffffffffffffffffffff160217905550620001e5600560009054906101000a900473ffffffffffffffffffffffffffffffffffffffff16620001bb6200021e60201b60201c565b600a620001c99190620006eb565b62989680620001d991906200073c565b6200022760201b60201c565b620001f56200021e60201b60201c565b600a620002039190620006eb565b816200021091906200073c565b600681905550505062000cae565b60006012905090565b62000237620002b860201b60201c565b816200024d620002c260201b620004561760201c565b62000259919062000b61565b11156200029d576040517f08c379a0000000000000000000000000000000000000000000000000000000008152600401620002949062000bec565b60405180910390fd5b620002b48282620002cc60201b620008cf1760201c565b5050565b6000608051905090565b6000600254905090565b620002dc620002b860201b60201c565b81620002f2620002c260201b620004561760201c565b620002fe919062000b61565b111562000342576040517f08c379a0000000000000000000000000000000000000000000000000000000008152600401620003399062000bec565b60405180910390fd5b6200035982826200035d60201b620009391760201c565b5050565b600073ffffffffffffffffffffffffffffffffffffffff168273ffffffffffffffffffffffffffffffffffffffff1603620003cf576040517f08c379a0000000000000000000000000000000000000000000000000000000008152600401620003c69062000c5e565b60405180910390fd5b620003e360008383620004ca60201b60201c565b8060026000828254620003f7919062000b61565b92505081905550806000808473ffffffffffffffffffffffffffffffffffffffff1673ffffffffffffffffffffffffffffffffffffffff168152602001908152602001600020600082825401925050819055508173ffffffffffffffffffffffffffffffffffffffff16600073ffffffffffffffffffffffffffffffffffffffff167fddf252ad1be2c89b69c2b068fc378daa952ba7f163c4a11628f55a4df523b3ef83604051620004aa919062000c91565b60405180910390a3620004c660008383620004cf60201b60201c565b5050565b505050565b505050565b600080fd5b6000819050919050565b620004ee81620004d9565b8114620004fa57600080fd5b50565b6000815190506200050e81620004e3565b92915050565b600080604083850312156200052e576200052d620004d4565b5b60006200053e85828601620004fd565b92505060206200055185828601620004fd565b9150509250929050565b7f4e487b7100000000000000000000000000000000000000000000000000000000600052601160045260246000fd5b60008160011c9050919050565b6000808291508390505b6001851115620005e957808604811115620005c157620005c06200055b565b5b6001851615620005d15780820291505b8081029050620005e1856200058a565b9450620005a1565b94509492505050565b600082620006045760019050620006d7565b81620006145760009050620006d7565b81600181146200062d576002811462000638576200066e565b6001915050620006d7565b60ff8411156200064d576200064c6200055b565b5b8360020a9150848211156200066757620006666200055b565b5b50620006d7565b5060208310610133831016604e8410600b8410161715620006a85782820a905083811115620006a257620006a16200055b565b5b620006d7565b620006b7848484600162000597565b92509050818404811115620006d157620006d06200055b565b5b81810290505b9392505050565b600060ff82169050919050565b6000620006f882620004d9565b91506200070583620006de565b9250620007347fffffffffffffffffffffffffffffffffffffffffffffffffffffffffffffffff8484620005f2565b905092915050565b60006200074982620004d9565b91506200075683620004d9565b92508282026200076681620004d9565b9150828204841483151762000780576200077f6200055b565b5b5092915050565b600081519050919050565b7f4e487b7100000000000000000000000000000000000000000000000000000000600052604160045260246000fd5b7f4e487b7100000000000000000000000000000000000000000000000000000000600052602260045260246000fd5b600060028204905060018216806200080957607f821691505b6020821081036200081f576200081e620007c1565b5b50919050565b60008190508160005260206000209050919050565b60006020601f8301049050919050565b600082821b905092915050565b600060088302620008897fffffffffffffffffffffffffffffffffffffffffffffffffffffffffffffffff826200084a565b6200089586836200084a565b95508019841693508086168417925050509392505050565b6000819050919050565b6000620008d8620008d2620008cc84620004d9565b620008ad565b620004d9565b9050919050565b6000819050919050565b620008f483620008b7565b6200090c6200090382620008df565b84845462000857565b825550505050565b600090565b6200092362000914565b62000930818484620008e9565b505050565b5b8181101562000958576200094c60008262000919565b60018101905062000936565b5050565b601f821115620009a757620009718162000825565b6200097c846200083a565b810160208510156200098c578190505b620009a46200099b856200083a565b83018262000935565b50505b505050565b600082821c905092915050565b6000620009cc60001984600802620009ac565b1980831691505092915050565b6000620009e78383620009b9565b9150826002028217905092915050565b62000a028262000787565b67ffffffffffffffff81111562000a1e5762000a1d62000792565b5b62000a2a8254620007f0565b62000a378282856200095c565b600060209050601f83116001811462000a6f576000841562000a5a578287015190505b62000a668582620009d9565b86555062000ad6565b601f19841662000a7f8662000825565b60005b8281101562000aa95784890151825560018201915060208501945060208101905062000a82565b8683101562000ac9578489015162000ac5601f891682620009b9565b8355505b6001600288020188555050505b505050505050565b600082825260208201905092915050565b7f45524332304361707065643a2063617020697320300000000000000000000000600082015250565b600062000b2760158362000ade565b915062000b348262000aef565b602082019050919050565b6000602082019050818103600083015262000b5a8162000b18565b9050919050565b600062000b6e82620004d9565b915062000b7b83620004d9565b925082820190508082111562000b965762000b956200055b565b5b92915050565b7f45524332304361707065643a2063617020657863656564656400000000000000600082015250565b600062000bd460198362000ade565b915062000be18262000b9c565b602082019050919050565b6000602082019050818103600083015262000c078162000bc5565b9050919050565b7f45524332303a206d696e7420746f20746865207a65726f206164647265737300600082015250565b600062000c46601f8362000ade565b915062000c538262000c0e565b602082019050919050565b6000602082019050818103600083015262000c798162000c37565b9050919050565b62000c8b81620004d9565b82525050565b600060208201905062000ca8600083018462000c80565b92915050565b608051611d7d62000cca60003960006105540152611d7d6000f3fe608060405234801561001057600080fd5b50600436106101165760003560e01c806342966c68116100a25780638da5cb5b116100715780638da5cb5b146102cf57806395d89b41146102ed578063a457c2d71461030b578063a9059cbb1461033b578063dd62ed3e1461036b57610116565b806342966c681461025d57806370a082311461027957806379cc6790146102a957806383197ef0146102c557610116565b80631a18e707116100e95780631a18e707146101a557806323b872dd146101c1578063313ce567146101f1578063355274ea1461020f578063395093511461022d57610116565b806306fdde031461011b578063095ea7b3146101395780630ac168a11461016957806318160ddd14610187575b600080fd5b61012361039b565b60405161013091906111c9565b60405180910390f35b610153600480360381019061014e9190611284565b61042d565b60405161016091906112df565b60405180910390f35b610171610450565b60405161017e9190611309565b60405180910390f35b61018f610456565b60405161019c9190611309565b60405180910390f35b6101bf60048036038101906101ba9190611324565b610460565b005b6101db60048036038101906101d69190611351565b610518565b6040516101e891906112df565b60405180910390f35b6101f9610547565b60405161020691906113c0565b60405180910390f35b610217610550565b6040516102249190611309565b60405180910390f35b61024760048036038101906102429190611284565b610578565b60405161025491906112df565b60405180910390f35b61027760048036038101906102729190611324565b6105af565b005b610293600480360381019061028e91906113db565b6105c3565b6040516102a09190611309565b60405180910390f35b6102c360048036038101906102be9190611284565b61060b565b005b6102cd61062b565b005b6102d76106f6565b6040516102e49190611429565b60405180910390f35b6102f561071c565b60405161030291906111c9565b60405180910390f35b61032560048036038101906103209190611284565b6107ae565b60405161033291906112df565b60405180910390f35b61035560048036038101906103509190611284565b610825565b60405161036291906112df565b60405180910390f35b61038560048036038101906103809190611444565b610848565b6040516103929190611309565b60405180910390f35b6060600380546103aa906114b3565b80601f01602080910402602001604051908101604052809291908181526020018280546103d6906114b3565b80156104235780601f106103f857610100808354040283529160200191610423565b820191906000526020600020905b81548152906001019060200180831161040657829003601f168201915b5050505050905090565b600080610438610a8f565b9050610445818585610a97565b600191505092915050565b60065481565b6000600254905090565b600560009054906101000a900473ffffffffffffffffffffffffffffffffffffffff1673ffffffffffffffffffffffffffffffffffffffff163373ffffffffffffffffffffffffffffffffffffffff16146104f0576040517f08c379a00000000000000000000000000000000000000000000000000000000081526004016104e790611530565b60405180910390fd5b6104f8610547565b600a61050491906116b2565b8161050f91906116fd565b60068190555050565b600080610523610a8f565b9050610530858285610c60565b61053b858585610cec565b60019150509392505050565b60006012905090565b60007f0000000000000000000000000000000000000000000000000000000000000000905090565b600080610583610a8f565b90506105a48185856105958589610848565b61059f919061173f565b610a97565b600191505092915050565b6105c06105ba610a8f565b82610f62565b50565b60008060008373ffffffffffffffffffffffffffffffffffffffff1673ffffffffffffffffffffffffffffffffffffffff168152602001908152602001600020549050919050565b61061d82610617610a8f565b83610c60565b6106278282610f62565b5050565b600560009054906101000a900473ffffffffffffffffffffffffffffffffffffffff1673ffffffffffffffffffffffffffffffffffffffff163373ffffffffffffffffffffffffffffffffffffffff16146106bb576040517f08c379a00000000000000000000000000000000000000000000000000000000081526004016106b290611530565b60405180910390fd5b600560009054906101000a900473ffffffffffffffffffffffffffffffffffffffff1673ffffffffffffffffffffffffffffffffffffffff16ff5b600560009054906101000a900473ffffffffffffffffffffffffffffffffffffffff1681565b60606004805461072b906114b3565b80601f0160208091040260200160405190810160405280929190818152602001828054610757906114b3565b80156107a45780601f10610779576101008083540402835291602001916107a4565b820191906000526020600020905b81548152906001019060200180831161078757829003601f168201915b5050505050905090565b6000806107b9610a8f565b905060006107c78286610848565b90508381101561080c576040517f08c379a0000000000000000000000000000000000000000000000000000000008152600401610803906117e5565b60405180910390fd5b6108198286868403610a97565b60019250505092915050565b600080610830610a8f565b905061083d818585610cec565b600191505092915050565b6000600160008473ffffffffffffffffffffffffffffffffffffffff1673ffffffffffffffffffffffffffffffffffffffff16815260200190815260200160002060008373ffffffffffffffffffffffffffffffffffffffff1673ffffffffffffffffffffffffffffffffffffffff16815260200190815260200160002054905092915050565b6108d7610550565b816108e0610456565b6108ea919061173f565b111561092b576040517f08c379a000000000000000000000000000000000000000000000000000000000815260040161092290611851565b60405180910390fd5b6109358282610939565b5050565b600073ffffffffffffffffffffffffffffffffffffffff168273ffffffffffffffffffffffffffffffffffffffff16036109a8576040517f08c379a000000000000000000000000000000000000000000000000000000000815260040161099f906118bd565b60405180910390fd5b6109b46000838361112f565b80600260008282546109c6919061173f565b92505081905550806000808473ffffffffffffffffffffffffffffffffffffffff1673ffffffffffffffffffffffffffffffffffffffff168152602001908152602001600020600082825401925050819055508173ffffffffffffffffffffffffffffffffffffffff16600073ffffffffffffffffffffffffffffffffffffffff167fddf252ad1be2c89b69c2b068fc378daa952ba7f163c4a11628f55a4df523b3ef83604051610a779190611309565b60405180910390a3610a8b60008383611134565b5050565b600033905090565b600073ffffffffffffffffffffffffffffffffffffffff168373ffffffffffffffffffffffffffffffffffffffff1603610b06576040517f08c379a0000000000000000000000000000000000000000000000000000000008152600401610afd9061194f565b60405180910390fd5b600073ffffffffffffffffffffffffffffffffffffffff168273ffffffffffffffffffffffffffffffffffffffff1603610b75576040517f08c379a0000000000000000000000000000000000000000000000000000000008152600401610b6c906119e1565b60405180910390fd5b80600160008573ffffffffffffffffffffffffffffffffffffffff1673ffffffffffffffffffffffffffffffffffffffff16815260200190815260200160002060008473ffffffffffffffffffffffffffffffffffffffff1673ffffffffffffffffffffffffffffffffffffffff168152602001908152602001600020819055508173ffffffffffffffffffffffffffffffffffffffff168373ffffffffffffffffffffffffffffffffffffffff167f8c5be1e5ebec7d5bd14f71427d1e84f3dd0314c0f7b2291e5b200ac8c7c3b92583604051610c539190611309565b60405180910390a3505050565b6000610c6c8484610848565b90507fffffffffffffffffffffffffffffffffffffffffffffffffffffffffffffffff8114610ce65781811015610cd8576040517f08c379a0000000000000000000000000000000000000000000000000000000008152600401610ccf90611a4d565b60405180910390fd5b610ce58484848403610a97565b5b50505050565b600073ffffffffffffffffffffffffffffffffffffffff168373ffffffffffffffffffffffffffffffffffffffff1603610d5b576040517f08c379a0000000000000000000000000000000000000000000000000000000008152600401610d5290611adf565b60405180910390fd5b600073ffffffffffffffffffffffffffffffffffffffff168273ffffffffffffffffffffffffffffffffffffffff1603610dca576040517f08c379a0000000000000000000000000000000000000000000000000000000008152600401610dc190611b71565b60405180910390fd5b610dd583838361112f565b60008060008573ffffffffffffffffffffffffffffffffffffffff1673ffffffffffffffffffffffffffffffffffffffff16815260200190815260200160002054905081811015610e5b576040517f08c379a0000000000000000000000000000000000000000000000000000000008152600401610e5290611c03565b60405180910390fd5b8181036000808673ffffffffffffffffffffffffffffffffffffffff1673ffffffffffffffffffffffffffffffffffffffff16815260200190815260200160002081905550816000808573ffffffffffffffffffffffffffffffffffffffff1673ffffffffffffffffffffffffffffffffffffffff168152602001908152602001600020600082825401925050819055508273ffffffffffffffffffffffffffffffffffffffff168473ffffffffffffffffffffffffffffffffffffffff167fddf252ad1be2c89b69c2b068fc378daa952ba7f163c4a11628f55a4df523b3ef84604051610f499190611309565b60405180910390a3610f5c848484611134565b50505050565b600073ffffffffffffffffffffffffffffffffffffffff168273ffffffffffffffffffffffffffffffffffffffff1603610fd1576040517f08c379a0000000000000000000000000000000000000000000000000000000008152600401610fc890611c95565b60405180910390fd5b610fdd8260008361112f565b60008060008473ffffffffffffffffffffffffffffffffffffffff1673ffffffffffffffffffffffffffffffffffffffff16815260200190815260200160002054905081811015611063576040517f08c379a000000000000000000000000000000000000000000000000000000000815260040161105a90611d27565b60405180910390fd5b8181036000808573ffffffffffffffffffffffffffffffffffffffff1673ffffffffffffffffffffffffffffffffffffffff1681526020019081526020016000208190555081600260008282540392505081905550600073ffffffffffffffffffffffffffffffffffffffff168373ffffffffffffffffffffffffffffffffffffffff167fddf252ad1be2c89b69c2b068fc378daa952ba7f163c4a11628f55a4df523b3ef846040516111169190611309565b60405180910390a361112a83600084611134565b505050565b505050565b505050565b600081519050919050565b600082825260208201905092915050565b60005b83811015611173578082015181840152602081019050611158565b60008484015250505050565b6000601f19601f8301169050919050565b600061119b82611139565b6111a58185611144565b93506111b5818560208601611155565b6111be8161117f565b840191505092915050565b600060208201905081810360008301526111e38184611190565b905092915050565b600080fd5b600073ffffffffffffffffffffffffffffffffffffffff82169050919050565b600061121b826111f0565b9050919050565b61122b81611210565b811461123657600080fd5b50565b60008135905061124881611222565b92915050565b6000819050919050565b6112618161124e565b811461126c57600080fd5b50565b60008135905061127e81611258565b92915050565b6000806040838503121561129b5761129a6111eb565b5b60006112a985828601611239565b92505060206112ba8582860161126f565b9150509250929050565b60008115159050919050565b6112d9816112c4565b82525050565b60006020820190506112f460008301846112d0565b92915050565b6113038161124e565b82525050565b600060208201905061131e60008301846112fa565b92915050565b60006020828403121561133a576113396111eb565b5b60006113488482850161126f565b91505092915050565b60008060006060848603121561136a576113696111eb565b5b600061137886828701611239565b935050602061138986828701611239565b925050604061139a8682870161126f565b9150509250925092565b600060ff82169050919050565b6113ba816113a4565b82525050565b60006020820190506113d560008301846113b1565b92915050565b6000602082840312156113f1576113f06111eb565b5b60006113ff84828501611239565b91505092915050565b6000611413826111f0565b9050919050565b61142381611408565b82525050565b600060208201905061143e600083018461141a565b92915050565b6000806040838503121561145b5761145a6111eb565b5b600061146985828601611239565b925050602061147a85828601611239565b9150509250929050565b7f4e487b7100000000000000000000000000000000000000000000000000000000600052602260045260246000fd5b600060028204905060018216806114cb57607f821691505b6020821081036114de576114dd611484565b5b50919050565b7f4e6f74206f776e65720000000000000000000000000000000000000000000000600082015250565b600061151a600983611144565b9150611525826114e4565b602082019050919050565b600060208201905081810360008301526115498161150d565b9050919050565b7f4e487b7100000000000000000000000000000000000000000000000000000000600052601160045260246000fd5b60008160011c9050919050565b6000808291508390505b60018511156115d6578086048111156115b2576115b1611550565b5b60018516156115c15780820291505b80810290506115cf8561157f565b9450611596565b94509492505050565b6000826115ef57600190506116ab565b816115fd57600090506116ab565b8160018114611613576002811461161d5761164c565b60019150506116ab565b60ff84111561162f5761162e611550565b5b8360020a91508482111561164657611645611550565b5b506116ab565b5060208310610133831016604e8410600b84101617156116815782820a90508381111561167c5761167b611550565b5b6116ab565b61168e848484600161158c565b925090508184048111156116a5576116a4611550565b5b81810290505b9392505050565b60006116bd8261124e565b91506116c8836113a4565b92506116f57fffffffffffffffffffffffffffffffffffffffffffffffffffffffffffffffff84846115df565b905092915050565b60006117088261124e565b91506117138361124e565b92508282026117218161124e565b9150828204841483151761173857611737611550565b5b5092915050565b600061174a8261124e565b91506117558361124e565b925082820190508082111561176d5761176c611550565b5b92915050565b7f45524332303a2064656372656173656420616c6c6f77616e63652062656c6f7760008201527f207a65726f000000000000000000000000000000000000000000000000000000602082015250565b60006117cf602583611144565b91506117da82611773565b604082019050919050565b600060208201905081810360008301526117fe816117c2565b9050919050565b7f45524332304361707065643a2063617020657863656564656400000000000000600082015250565b600061183b601983611144565b915061184682611805565b602082019050919050565b6000602082019050818103600083015261186a8161182e565b9050919050565b7f45524332303a206d696e7420746f20746865207a65726f206164647265737300600082015250565b60006118a7601f83611144565b91506118b282611871565b602082019050919050565b600060208201905081810360008301526118d68161189a565b9050919050565b7f45524332303a20617070726f76652066726f6d20746865207a65726f2061646460008201527f7265737300000000000000000000000000000000000000000000000000000000602082015250565b6000611939602483611144565b9150611944826118dd565b604082019050919050565b600060208201905081810360008301526119688161192c565b9050919050565b7f45524332303a20617070726f766520746f20746865207a65726f20616464726560008201527f7373000000000000000000000000000000000000000000000000000000000000602082015250565b60006119cb602283611144565b91506119d68261196f565b604082019050919050565b600060208201905081810360008301526119fa816119be565b9050919050565b7f45524332303a20696e73756666696369656e7420616c6c6f77616e6365000000600082015250565b6000611a37601d83611144565b9150611a4282611a01565b602082019050919050565b60006020820190508181036000830152611a6681611a2a565b9050919050565b7f45524332303a207472616e736665722066726f6d20746865207a65726f20616460008201527f6472657373000000000000000000000000000000000000000000000000000000602082015250565b6000611ac9602583611144565b9150611ad482611a6d565b604082019050919050565b60006020820190508181036000830152611af881611abc565b9050919050565b7f45524332303a207472616e7366657220746f20746865207a65726f206164647260008201527f6573730000000000000000000000000000000000000000000000000000000000602082015250565b6000611b5b602383611144565b9150611b6682611aff565b604082019050919050565b60006020820190508181036000830152611b8a81611b4e565b9050919050565b7f45524332303a207472616e7366657220616d6f756e742065786365656473206260008201527f616c616e63650000000000000000000000000000000000000000000000000000602082015250565b6000611bed602683611144565b9150611bf882611b91565b604082019050919050565b60006020820190508181036000830152611c1c81611be0565b9050919050565b7f45524332303a206275726e2066726f6d20746865207a65726f2061646472657360008201527f7300000000000000000000000000000000000000000000000000000000000000602082015250565b6000611c7f602183611144565b9150611c8a82611c23565b604082019050919050565b60006020820190508181036000830152611cae81611c72565b9050919050565b7f45524332303a206275726e20616d6f756e7420657863656564732062616c616e60008201527f6365000000000000000000000000000000000000000000000000000000000000602082015250565b6000611d11602283611144565b9150611d1c82611cb5565b604082019050919050565b60006020820190508181036000830152611d4081611d04565b905091905056fea2646970667358221220cb9d19635eccd77f70ba1f225cb6cfc5a32953696455f05b8cc9a99de20b0a8764736f6c63430008110033",
  "linkReferences": {},
  "deployedLinkReferences": {}
}